:020000040800F2
:10000000F00600206501000875190008891700082E
:1000100000000000000000000000000000000000E0
:10002000000000000000000000000000DD1B0008D0
:100030000000000000000000291A00084D1C000804
:100040009501000895010008950100089501000838
:100050009501000895010008950100089501000828
:100060009501000895010008950100089501000818
:100070009D030008C51C00089501000895010008B3
:10008000111D00080000000000000000950100089C
:100090000000000095010008950100089501000886
:1000A0000000000095010008950100089501000876
:1000B0009501000800000000B11300089501000838
:1000C00000F002F800F03EF80CA030C80838241800
:1000D0002D18A246671EAB4654465D46AC4201D180
:1000E00000F030F87E460F3E0FCCB6460126334274
:1000F00000D0FB1AA246AB46334318471C2200002F
:100100003C220000103A02D378C878C1FAD85207CE
:1001100001D330C830C101D504680C6070470000BD
:100120000023002400250026103A01D378C1FBD813
:10013000520700D330C100D50B6070471FB51FBDFB
:1001400010B510BD00F0F8F81146FFF7F7FF02F008
:1001500053F800F010F903B4FFF7F2FF03BC00F00E
:1001600015F900000F4880F308880F480168090E50
:100170000E4A914205D10E480E4901600E480F49C2
:1001800001600F4880470F480047FEE7FEE7FEE7A3
:10019000FEE7FEE7FEE700000B480C490C4A0D4B5A
:1001A00070470000F0060020040000001F0000005F
:1001B0001810024001000000000001400000000093
:1001C000511C0008C1000008F0000020F0060020CB
:1001D000F0020020F0020020002203098B422CD301
:1001E000030A8B4211D300239C464EE003460B4387
:1001F0003CD4002243088B4231D303098B421CD3E9
:10020000030A8B4201D394463FE0C3098B4201D3DA
:10021000CB01C01A524183098B4201D38B01C01A12
:10022000524143098B4201D34B01C01A5241030989
:100230008B4201D30B01C01A5241C3088B4201D338
:10024000CB00C01A524183088B4201D38B00C01AE5
:10025000524143088B4201D34B00C01A5241411A0C
:1002600000D201465241104670475DE0CA0F00D0EF
:100270004942031000D34042534000229C460309E8
:100280008B422DD3030A8B4212D3FC22890112BA6E
:10029000030A8B420CD3890192118B4208D3890146
:1002A00092118B4204D389013AD0921100E089095E
:1002B000C3098B4201D3CB01C01A524183098B423F
:1002C00001D38B01C01A524143098B4201D34B0128
:1002D000C01A524103098B4201D30B01C01A52418B
:1002E000C3088B4201D3CB00C01A524183088B4212
:1002F00001D38B00C01A5241D9D243088B4201D39B
:100300004B00C01A5241411A00D201466346524185
:100310005B10104601D34042002B00D54942704784
:1003200063465B1000D3404201B50020C046C04682
:1003300002BD704770477047754600F023F8AE461F
:10034000050069465346C008C000854618B020B570
:10035000FFF722FF60BC00274908B6460026C0C54B
:10036000C0C5C0C5C0C5C0C5C0C5C0C5C0C5403D6D
:1003700049008D4670470446C046C0462046FFF7F8
:10038000EAFE000000487047900000200149182054
:10039000ABBEFEE7260002007047000010B5042146
:1003A000414800F051F901285FD140480078012808
:1003B00023D100203D4908703B4800F029F93C4911
:1003C000096840183A4908603A480068401C3949B1
:1003D0000860084600680A2847D1002008600A2102
:1003E00033480068FFF7F8FE3349088000203049A1
:1003F000086001203149087037E001202B4908705E
:10040000294800F005F92E49097849002D4A505233
:100410002B4801780078401C294A1070480029496F
:10042000085A294909684018274908601046007889
:100430000A2802D100201146087024480068401C98
:1004400022490860084600680A280ED1002008608A
:100450000A211D480068FFF7BFFE1D4908800020E3
:100460001949086001201B49087008210E4800F056
:10047000EBF8012803D108210B4800F075F8102192
:10048000094800F0E1F8012803D11021064800F0E6
:100490006BF80221044800F0D7F8012803D10221AB
:1004A000014800F061F810BD002401401000002058
:1004B0002800002018000020140000201100002057
:1004C000300000207C0000202C0000201C000020B8
:1004D0001600002012000020F8B505460E4614460E
:1004E00000271A48854200D103E0194919A001F0FC
:1004F00081FE002E04D0F00CC004002800D104E0DE
:100500001349491C13A001F075FE002C0DD0012CDD
:100510000BD0022C09D0032C07D0042C05D0052CBD
:1005200003D0062C01D0072C00D104E02D210901B5
:1005300008A001F05FFEA86A3043A862FF08FF0030
:100540003846204307466F61F8BD00000024014093
:10055000CE0200007372635C73746D333266307860
:10056000785F6164632E630070B505460C460B48E6
:10057000854200D103E00A490AA001F03BFE002CAD
:1005800005D09F2120468843002800D104E004497B
:10059000491C04A001F02EFE2C6070BD0024014017
:1005A000810400007372635C73746D33326630785B
:1005B000785F6164632E630070B504460D460E4893
:1005C000844200D103E0E8210CA001F013FE002DCD
:1005D00001D0012D00D103E0E92108A001F00AFEBD
:1005E000002D04D0A06801210843A06003E0A068AA
:1005F00002210843A06070BD002401407372635C57
:1006000073746D3332663078785F6164632E630093
:1006100010B504460548844200D103E0044905A012
:1006200001F0E8FD206C80B210BD00000024014004
:100630007B0300007372635C73746D3332663078D1
:10064000785F6164632E6300F8B505460C460026AA
:1006500000272048854200D103E01F491FA001F078
:10066000C9FD012C1AD0022C18D0042C16D0082C4D
:1006700014D0802C12D0102C10D01D4884420DD0E4
:10068000401C84420AD0801C844207D018480F3096
:10069000844203D081200006844200D104E00E4948
:1006A000491C0EA001F0A6FD0120000620400028F4
:1006B00005D0A868012109068843074600E02F6895
:1006C00038462040002801D0012600E000263046B0
:1006D000F8BD000000240140560400007372635C02
:1006E00073746D3332663078785F6164632E6300B3
:1006F0000100000170B504460D46164614488442B8
:1007000000D103E0134914A001F074FD002E01D0C4
:10071000012E00D104E00F49491C0FA001F06AFD31
:10072000002D05D09F2128468843002800D104E0F1
:100730004321090108A001F05DFD002E03D060688F
:100740002843606002E06068A843606070BD0000FC
:10075000002401402E0400007372635C73746D33D7
:1007600032663078785F6164632E630070B5054649
:100770000C4600263B48854200D103E0A0213AA068
:1007800001F038FD2068002808D02068082805D02E
:100790002068102802D02068182800D103E0A12189
:1007A00031A001F027FD2079002802D0207901280E
:1007B00000D103E0A2212CA001F01CFDA0680028BC
:1007C0000DD001218902A068884208D04900A068A4
:1007D000884204D003218902A068884200D103E046
:1007E000A32121A001F006FDE06800280DD0E068FB
:1007F00040280AD0E068802807D0E068C02804D0EC
:10080000FF210131E068884200D103E0A42116A055
:1008100001F0F0FC2069002802D02069202800D1D6
:1008200003E0A52110A001F0E5FC6069002802D0DA
:100830006069042800D103E0A6210BA001F0DAFCD6
:10084000EE680E4806402179490320680843A168F4
:100850000843E16808432169084361690843064386
:10086000EE6070BD002401407372635C73746D337D
:1008700032663078785F6164632E630003D2FFFFD5
:1008800010B504460648844200D103E0054906A09D
:1008900001F0B0FCA06804210843A06010BD000076
:1008A000002401406E0300007372635C73746D3347
:1008B00032663078785F6164632E630010B5044659
:1008C0000848844200D103E09C2107A001F092FC7B
:1008D0000121480601F016F900210120400601F02F
:1008E00011F910BD006400407372635C73746D3362
:1008F00032663078785F63616E2E630070B50446AF
:100900000025A07A1B2800DC04E0FF213C3155A023
:1009100001F070FCE07A002802D0E07A012800D1D2
:1009200004E0FF213D314FA001F064FC207B002852
:1009300002D0207B012800D104E0FF213E3149A0F4
:1009400001F058FC2089002802D02089012800D11C
:1009500004E0FF213F3143A001F04CFC607B002804
:1009600002D0607B012800D104E0FF2140313DA08E
:1009700001F040FCA17A0120884005463E4800680D
:10098000012108433C4908600846C069A843C86182
:10099000207B00281AD10846C068A843C860E088B8
:1009A0000004618808433549092292018918A27A16
:1009B000D2008850A0880004218808432F490922CA
:1009C00092018918A27AD20089184860207B0128F8
:1009D0001BD12948C06828432749C86020880004E3
:1009E000618808432549092292018918A27AD20018
:1009F0008850A0880004E188084320490922920118
:100A00008918A27AD20089184860E07A002805D1B6
:100A100019484068A8431849486004E016484068EF
:100A20002843154948602089002804D112484069AC
:100A3000A843114948612089012804D10E48406922
:100A400028430D494861607B012804D10A48C069E8
:100A500028430949C8610848006840084000064921
:100A6000086070BD7372635C73746D333266307886
:100A7000785F63616E2E6300006600400064004092
:100A800070B505460C4600264248854200D103E079
:100A9000414942A001F0AEFB454884422DD0454873
:100AA00084422AD0801E844227D0401E844224D013
:100AB0004148844221D0414884421ED03F480838F2
:100AC00084421AD03E48844217D03E48844214D013
:100AD0003C480838844210D03B4884420DD03B4803
:100AE00084420AD03A48844207D03948FF388442C9
:100AF00003D031480A30844200D104E02649491C21
:100B000026A001F077FB0F2000052040002809D027
:100B1000A8692103090B0840002801D0012637E00D
:100B2000002635E0012000062040002809D0686832
:100B30002103090B0840002801D0012628E00026E7
:100B400026E00120C0062040002809D0A868210323
:100B5000090B0840002801D0012619E0002617E003
:100B6000012040062040002809D0E8682103090B35
:100B70000840002801D001260AE0002608E0286984
:100B80002103090B0840002801D0012600E00026BF
:100B9000304670BD00640040F10400007372635C75
:100BA00073746D3332663078785F63616E2E6300E4
:100BB0007000F0300400F010080000311000003226
:100BC000030000121000003403000014000001387C
:100BD0000001003870B504460D4600266348844283
:100BE00000D104E05921090161A001F003FB012DAE
:100BF00021D0022D1FD0042D1DD0082D1BD0102D6B
:100C000019D0202D17D0402D15D0FF20013085425E
:100C100011D0400085420ED0400085420BD04000EC
:100C2000854208D00001854205D04000854202D0AF
:100C30004000854200D103E052494DA001F0DAFAAC
:100C40006069284000286FD0FF210131681A8D4269
:100C500064D010DC082D3DD006DC012D28D0022DFB
:100C60002CD0042D7BD12FE0102D39D0202D3DD05C
:100C7000402D74D140E07F221202811A904268D048
:100C80000DDCFF38013800284FD0FF38FF3802381C
:100C9000002850D001218902401A60D151E0012082
:100CA000C003081A2ED001210904401A57D12FE0A1
:100CB000A068354900F0C0FB064652E0E068032119
:100CC00000F0BAFB06464CE0E068082100F0B4FBF7
:100CD000064646E0E068102100F0AEFB064640E024
:100CE0002069032100F0A8FB06463AE020690821AC
:100CF00000F0A2FB064634E02069102100F09CFBC6
:100D000006462EE06068082100F096FB064628E0C3
:100D10006068102100F090FB064622E0A0690121E6
:100D200000F08AFB06461CE01CE0A069022100F0EE
:100D300083FB064615E0A069042100F07DFB064612
:100D40000FE0A069702100F077FB064609E006E09D
:100D5000FFE76068042100F06FFB064601E0002613
:100D600000BF00E00026304670BD00000064004077
:100D70007372635C73746D3332663078785F63616D
:100D80006E2E6300910500000101010070B505465B
:100D90000C4616462248854200D103E0214922A094
:100DA00001F028FA012C21D0022C1FD0042C1DD0D8
:100DB000082C1BD0102C19D0202C17D0402C15D06B
:100DC000FF200130844211D0400084420ED0400008
:100DD00084420BD04000844208D00001844205D0F8
:100DE0004000844202D04000844200D104E09921B6
:100DF000C9000DA001F0FEF9002E01D0012E00D196
:100E000004E00849891C08A001F0F4F9002E03D081
:100E100068692043686102E06869A043686170BD49
:100E200000640040C70400007372635C73746D3328
:100E300032663078785F63616E2E6300F8B50446E1
:100E40000D46002700268948844200D103E0B321E3
:100E500087A001F0CFF9A879002802D0A87901284D
:100E600000D103E0B42182A001F0C4F9E8790028A0
:100E700002D0E879012800D103E0B5217CA001F07F
:100E8000B9F9287A002802D0287A012800D103E095
:100E9000B62177A001F0AEF9687A002802D0687A0E
:100EA000012800D103E0B72171A001F0A3F9A87ACD
:100EB000002802D0A87A012800D103E0B8216CA054
:100EC00001F098F9E87A002802D0E87A012800D1E8
:100ED00003E0B92166A001F08DF9A878002808D0B8
:100EE000A878012805D0A878022802D0A87803287D
:100EF00000D103E0BA215EA001F07CF9E878002877
:100F000008D0E878012805D0E878022802D0E878EF
:100F1000032800D103E0BB2155A001F06BF928792B
:100F20000F2800DC03E0BC2151A001F063F96879CF
:100F3000072800DC03E0BD214DA001F05BF9288803
:100F4000012805DB288801218902884200DC03E0B2
:100F5000BE2147A001F04EF920680221884320609D
:100F6000206801210843206000E0761C6068C0070B
:100F7000C00F002802D143488642F6D16068C007FE
:100F8000C00F002801D100276DE0A879012804D105
:100F9000206880210843206003E020688021884386
:100FA0002060E879012804D12068402108432060AE
:100FB00003E02068402188432060287A012804D17A
:100FC000206820210843206003E020682021884316
:100FD0002060687A012804D120681021084320602D
:100FE00003E02068102188432060A87A012804D1FA
:100FF000206808210843206003E020680821884316
:101000002060E87A012804D1206804210843206088
:1010100003E02068042188432060A8788007E978ED
:101020000906084329790904084369790905084331
:101030002988491E0843E06120684008400020607C
:10104000002600E0761C6068C007C00F002802D0B0
:101050000C488642F6D16068C007C00F002801D056
:10106000002700E001273846F8BD0000006400407A
:101070007372635C73746D3332663078785F63616A
:101080006E2E6300FFFFFF0070B504460D46164646
:101090004948844200D103E0484949A001F0AAF838
:1010A000002D01D0012D00D104E04449491C44A089
:1010B00001F0A0F829012046FF30B130405804214A
:1010C00008403072307A002807D129012046FF30CD
:1010D000B1304058400D306006E029012046FF3015
:1010E000B1304058C008706029012046FF30B1304F
:1010F000405802210840707229012046FF30B1306B
:10110000081840680007000FB07229012046FF3020
:10111000B130081840680004000EF0742901204620
:10112000FF30B13008188068F07229012046FF3086
:10113000B130081880680004010E3173290120467F
:10114000FF30B130081880680002010E7173290168
:101150002046FF30B13008188068000EB0732901B6
:101160002046FF30B1300818C068F07329012046CE
:10117000FF30B1300818C0680004010E3174290135
:101180002046FF30B1300818C0680002010E7174AB
:1011900029012046FF30B1300818C068000EB07435
:1011A000002D04D1E06820210843E06003E02069BD
:1011B00020210843206170BD00640040D902000076
:1011C0007372635C73746D3332663078785F636119
:1011D0006E2E630070B505460C4600266B488542AE
:1011E00000D103E06A496BA001F004F8207A0028DE
:1011F00002D0207A042800D104E06549491C65A08A
:1012000000F0F8FF607A002802D0607A022800D14E
:1012100004E05F49891C5FA000F0ECFFA07A082879
:1012200000DC04E0232109015AA000F0E3FFA868D4
:10123000012189060840884201D1002610E0A868F3
:101240000121C9060840884201D1012608E0A868AA
:10125000012109070840884201D1022600E0042646
:10126000042E7DD031012846FF3081304058C1071F
:10127000C90F32012846FF3081308150207A002882
:1012800019D149492068884200D804E040491D31FD
:1012900040A000F0AFFF20884005617A084332018A
:1012A0002946FF3181318958084332012946FF31EF
:1012B000813188501AE03D496068884200D804E0D6
:1012C0002521090133A000F095FF6068C000217A54
:1012D0000843617A084332012946FF318131895838
:1012E000084332012946FF3181318850A07A000736
:1012F000000FA07231012846FF3081300818406885
:101300000109090132012846FF308130101841607F
:1013100031012846FF30813008184068A17A08431F
:1013200032012946FF31813151184860A07B000607
:10133000617B09040843217B09020843E17A0843E1
:1013400032012946FF31813151188860A07C0006A6
:10135000617C09040843217C09020843E17B00E029
:1013600012E0084332012946FF3181315118C8602B
:1013700031012846FF3081304058012108433201B5
:101380002946FF3181318850304670BD00640040ED
:101390002D0200007372635C73746D3332663078B3
:1013A000785F63616E2E6300FF070000FFFFFF1F81
:1013B00010B502211248FFF70DFC012815D1114983
:1013C0000870114A00210E48FFF75EFE0E480068C3
:1013D00023210901884207D10B48C07A0B490860D4
:1013E00000200B49086000E000BF01218902044889
:1013F000FFF7F0FB012801D100F00CFA10BD00004E
:101400000064004013000020680000200400002059
:101410000800002010B502460B46002100BF04E082
:1014200088001058034C2060491C9942F8D30148A9
:10143000006810BD003002400246002013460B40F9
:10144000002B01D0012000E000207047F8B50446D1
:101450000D4600260027002000900920C006844287
:101460000ED04C4884420BD04B48844208D04B48A5
:10147000844205D04A48844202D04A48844200D17E
:1014800003E0AE2148A000F0B5FE2868002800D097
:1014900003E0AF2144A000F0ADFE2879002808D079
:1014A0002879012805D02879022802D02879032834
:1014B00000D103E0B0213CA000F09CFEE8790028B8
:1014C00005D0E879012802D0E879022800D103E0AC
:1014D000B12135A000F08EFE002657E00120B0407B
:1014E00007462868384000900098B8424DD12879C6
:1014F000012802D0287902282FD16879002805D048
:101500006879012802D06879032800D103E0C1215D
:1015100025A000F06FFEA06872000321914088436F
:10152000A060687971008840A1680843A060A8792C
:10153000002802D0A879012800D103E0C8211AA010
:1015400000F058FEA0880121B1408843A080A08807
:10155000A979B14089B20843A080216872000320B4
:1015600090408143216028797100884021680843B8
:101570002060E1687200032090408143E160E879D7
:1015800071008840E1680843E060761C102EA5D306
:10159000F8BD00000004004800080048000C0048A6
:1015A00000100048001400487372635C73746D335C
:1015B00032663078785F6770696F2E6300000000D4
:1015C000F8B505460C461646002700200090092075
:1015D000C00685420ED0394885420BD03848854236
:1015E00008D03848854205D03748854202D0374870
:1015F000854200D104E08121890035A000F0FAFD88
:10160000002C1DD0012C1BD0022C19D0032C17D07C
:10161000042C15D0052C13D0062C11D0072C0FD07C
:10162000082C0DD0092C0BD00A2C09D00B2C07D07C
:101630000C2C05D00D2C03D00E2C01D00F2C00D17A
:1016400003E0294922A000F0D5FD002E0DD0012E87
:101650000BD0022E09D0032E07D0042E05D0052E64
:1016600003D0062E01D0072E00D104E01E49491CEC
:1016700017A000F0BFFD6007C10E30468840074646
:10168000E01081002846203040586107CA0E0F2123
:1016900091408843E1108A00294620318850E010AB
:1016A000810028462030405838430090E1108A00DD
:1016B0002946203100988850F8BD000000040048F9
:1016C00000080048000C00480010004800140048C2
:1016D0007372635C73746D3332663078785F6770F1
:1016E000696F2E63000000000502000070B504461B
:1016F0000D460920C00684420ED00F4884420BD00C
:101700000E48844208D00E48844205D00D488442D9
:1017100002D00D48844200D104E0FF2186310BA0A5
:1017200000F068FD002D00D004E0FF21873107A004
:1017300000F060FDA56170BD00040048000800488D
:10174000000C004800100048001400487372635CED
:1017500073746D3332663078785F6770696F2E63AB
:101760000000000000B502460B46002B00D003E04D
:10177000552103A000F03EFD908A5840908200BDA4
:101780006D61696E2E63000000BFFEE700B589B091
:101790000121480200F0ECF903216846017218208B
:1017A000019000216846C172417201A90920C0065A
:1017B000FFF74CFE00216846017400200790069058
:1017C00005900390089003A91148FEF7CFFF072268
:1017D00010210F48FEF780FE072208210C48FEF773
:1017E0007BFE012204210A48FEF784FF0C21684693
:1017F0000170012181700221417000F0BDF80121CA
:101800000348FEF7D9FE0248FFF73AF809B000BDD9
:101810000024014000B58BB00121480600F03CF9DE
:101820000121084600F0A4F90121480400F0FEF867
:1018300000BF39480068102108433749086008464E
:101840000068102108400028F3D002216846017387
:101850000320C002029001216846C1730021417338
:1018600004220B210920C006FFF7AAFE04220C2146
:101870000920C006FFF7A4FE02A90920C006FFF751
:10188000E5FD012108A8C171002101720821684607
:101890000184002108A8C170032101710221417156
:1018A00000218170417281728171C172012168468B
:1018B0004177002101832321490201820921C902C4
:1018C000418225214902818213218902C18201219D
:1018D000C1768176002101771E210171012181717C
:1018E0000221417101A800F047F80C48FEF7E6FF1D
:1018F00008A90A48FFF7A2FA04A8FEF7FFFF012291
:1019000002210648FFF742FA0122D1030348FFF7FC
:101910003DFA0BB000BD0000000001400064004033
:101920001FB50121C80200F023F90021684681811A
:10193000C1807D20C00002900146684681800D2153
:10194000017001218170417000F016F801221146EA
:10195000074800F003FB01A9054800F0B3FB202174
:10196000034800F05DFB0121014800F031FA1FBD82
:10197000002C01407047000070B504460025A07897
:10198000002802D0A078012800D103E052211FA036
:1019900000F030FC6078042800DA03E053211BA03B
:1019A00000F028FCA078002827D01E480321090257
:1019B0004018217889108900455820788007C10E89
:1019C000FF208840294681430D4660788007000E3D
:1019D00021788907C90E884005431248032109026E
:1019E000401821788910890045502078C106C90E19
:1019F000012088400B49086007E02078C106C90E25
:101A00000120884007498031086070BD7372635CB3
:101A100073746D3332663078785F6D6973632E63EB
:101A20000000000000E100E07047000070B50446CF
:101A30000D4611482040002802D1002C00D003E0C0
:101A40000E490FA000F0D6FB002D01D0012D00D1D2
:101A500004E00A49491C0AA000F0CCFB002D05D087
:101A60000C48406920430B49486104E0094840693B
:101A7000A0430849486170BDA8FF81FE56050000DB
:101A80007372635C73746D3332663078785F72633F
:101A9000632E63000010024070B504460D461148E5
:101AA0002040002802D1002C00D003E00E490FA0F6
:101AB00000F0A0FB002D01D0012D00D104E00A4967
:101AC000491C0AA000F096FB002D05D00C48C06907
:101AD00020430B49C86104E00948C069A043084994
:101AE000C86170BDCCB68185AB0500007372635CC4
:101AF00073746D3332663078785F7263632E63007F
:101B00000010024070B504460D46114820400028E0
:101B100002D1002C00D003E00E490FA000F06AFBB8
:101B2000002D01D0012D00D104E00A49491C0AA072
:101B300000F060FB002D05D00C48006920430B49E4
:101B4000086104E009480069A0430849086170BDC4
:101B5000CCB68185190600007372635C73746D33B3
:101B600032663078785F7263632E63000010024043
:101B700070B504460D4611482040002802D1002CC3
:101B800000D003E00E490FA000F034FB002D01D07F
:101B9000012D00D104E00A49491C0AA000F02AFBEB
:101BA000002D05D00C48806920430B49886104E072
:101BB00009488069A0430849886170BD1EA5B8FF27
:101BC0007D0500007372635C73746D333266307828
:101BD000785F7263632E630000100240704700005C
:101BE00070B586B005460C4614480668012D02D132
:101BF0001348019001E013480190002003E06A4679
:101C00001654360A401C0428F9DB002004E069461B
:101C10000A5C0F310A54401C0428F8DB211201A889
:101C2000C1730474082168468173002101734173F4
:101C300001A90548FFF7CEFA06B070BD0C000020E0
:101C40007707000055050000006400407047000061
:101C50001948006801210843174908600846406890
:101C6000164908401449486008460068144908406D
:101C700011490860084600680121890488430E491B
:101C80000860084640683F21090488430A494860C3
:101C90000846C06A00090001C8620846006BFF21BF
:101CA00054318843044908630846406B40084000AB
:101CB0004863002088607047001002400CB8FF089D
:101CC000FFFFF6FE10B501210D4800F0D9F80128FC
:101CD00014D101210A4800F02BF80A480068401C82
:101CE000084908600846006807490968884205D124
:101CF0000648FEF7C5FD00200249086010BD00003F
:101D0000002C0140080000200400002000240140B5
:101D100010B51021044800F0B3F8012803D11021B8
:101D2000024800F005F810BD00040040002C0140FE
:101D300070B504460D461848844218D0012080072B
:101D4000844214D01548844211D0154884420ED0E4
:101D5000144884420BD01448844208D0134884426B
:101D600005D01348844202D01248844200D103E0D7
:101D7000114912A000F03EFAE1200002284000289C
:101D800002D1002D00D004E00B49491C0BA000F04B
:101D900031FAE843208270BD002C0140000400406D
:101DA00000100040001400400020004000400140AE
:101DB0000044014000480140BB0900007372635CAD
:101DC00073746D3332663078785F74696D2E63009A
:101DD00070B504460D461B48844218D00120800788
:101DE000844214D01848844211D0184884420ED03E
:101DF000174884420BD01748844208D016488442C2
:101E000005D01648844202D01548844200D104E02F
:101E10009721890013A000F0EDF9002D01D0012DCC
:101E200000D103E014490FA000F0E4F9002D04D024
:101E3000208801210843208003E020880F490840C2
:101E4000208070BD002C01400004004000100040C4
:101E500000140040002000400040014000440140C8
:101E6000004801407372635C73746D33326630787E
:101E7000785F74696D2E63005D020000FEFF000054
:101E800070B505460C4600262648854218D001202C
:101E90008007854214D02448854211D023488542CA
:101EA0000ED0234885420BD02248854208D02248D4
:101EB000854205D02148854202D02148854200D183
:101EC00003E0204920A000F095F9012C1AD0022C43
:101ED00018D0042C16D0082C14D0102C12D0202C82
:101EE00010D0402C0ED0802C0CD001204002844217
:101EF00008D04000844205D04000844202D0400017
:101F0000844200D104E00F49491C0FA000F072F98F
:101F1000288A2040002801D0012600E00026304613
:101F200070BD0000002C0140000400400010004083
:101F300000140040002000400040014000440140E7
:101F4000004801408C0900007372635C73746D3348
:101F500032663078785F74696D2E630070B5044620
:101F60000D4616462048844218D00120800784423E
:101F700014D01E48844211D01D4884420ED01D4802
:101F800084420BD01C48844208D01C48844205D0AF
:101F90001B48844202D01B48844200D103E01A4906
:101FA0001AA000F027F9FF2000022840002802D1E3
:101FB000002D00D004E01449491C14A000F01AF9C7
:101FC000002E01D0012E00D104E00F49891C0FA082
:101FD00000F010F9002E03D0A0892843A08102E070
:101FE000A089A843A08170BD002C014000040040DE
:101FF000001000400014004000200040004001405C
:1020000000440140004801403A0900007372635CDB
:1020100073746D3332663078785F74696D2E630047
:1020200070B504460D461B4884420FD0012080073E
:1020300084420BD01848844208D01848844205D006
:102040001748844202D01748844200D103E0164961
:1020500016A000F0CFF8002D0DD0102D0BD0202DA4
:1020600009D0302D07D0402D05D0502D03D0602D44
:1020700001D0702D00D104E00B49491C0BA000F0E9
:10208000B9F8A0880E490840A080A0882843A08005
:1020900070BD0000002C0140000400400010004012
:1020A0000014004000400140860B00007372635C26
:1020B00073746D3332663078785F74696D2E6300A7
:1020C0008FFF000070B504460D4600263A48844252
:1020D00018D001208007844214D03848844211D09F
:1020E000374884420ED0374884420BD03648844269
:1020F00008D03648844205D03548844202D035485D
:10210000844200D104E0FF210D3133A000F072F8C9
:10211000688800280BD06888102808D06888202894
:1021200005D06888402802D06888602800D104E083
:10213000FF210E3128A000F05DF82889002808D082
:102140002889FF210131884203D02889490088422B
:1021500000D104E0FF210F311FA000F04BF82688CA
:102160001548844206D001208007844202D01348DB
:10217000844203D11D4806406888064310488442C3
:1021800003D01B4806402889064326806868E06221
:10219000288820850848844208D00C48844205D00D
:1021A0000B48844202D00B48844201D1A87A208691
:1021B0000120A08270BD0000002C014000040040FE
:1021C000001000400014004000200040004001408A
:1021D00000440140004801407372635C73746D33C6
:1021E00032663078785F74696D2E63008FFF00006F
:1021F000FFFC000000BFFEE71CB5FFF70BFBFFF77D
:10220000C5FAFFF78DFB01214804FFF70FFC012100
:102210004020FFF70BFC012168460171602000900F
:1022200000216846C171417169460920C006FFF767
:102230000DF9002007E081002D4A126851588200F4
:102240002C4B9950401C0328F5D303212948FFF754
:10225000E1F82949086040210920C006FFF746FA45
:1022600044E026480078002814D000202349087054
:102270002348048820210920C006FFF773FA21466D
:102280000120FFF7ADFC002000E0401C1D49884202
:10229000FBD300BF1C480078002814D000201A4946
:1022A00008701A48048820210920C006FFF75AFA4E
:1022B00021460220FFF794FC002000E0401C114959
:1022C0008842FBD300BF12491248FEF7D9FB012810
:1022D0000CD100BF20210920C006FFF743FA0020DF
:1022E00000E0401C07498842FBD3F3E7B9E7000050
:1022F00000000020340000200C000020110000200D
:1023000014000020A086010012000020160000200A
:102310000400F01000640040382300080000002092
:1023200034000000040100086C2300083400002081
:10233000BC06000020010008ACF7FF1F03000000EE
:10234000000000000000000000000000000000008D
:10235000000000000000000000000000000000007D
:0C23600000000000000000000000000071
:04000005080000C12E
:00000001FF
